{
  "transactions": [
    {
      "hash": "0x630232291f7f79477307e17778135c8b4927102ba02c2e9d44dac56e9a74ef67",
      "transactionType": "CALL",
      "contractName": null,
      "contractAddress": "0x779877a7b0d9e8603169ddbd7836e478b4624789",
      "function": "transferAndCall(address,uint256,bytes)",
      "arguments": [
        "0x9DdfaCa8183c41ad55329BdeeD9F6A8d53168B1B",
        "3000000000000000000",
        "0xf904df29146b1f0652c5bd45633b5c7fb43d0ba6906cb8a3085b9f6a3f4c9b68"
      ],
      "transaction": {
        "from": "0x98ff73fb08281742fdb198f434c074d7fc8a6c90",
        "to": "0x779877a7b0d9e8603169ddbd7836e478b4624789",
        "gas": "0x1c1ff",
        "value": "0x0",
        "input": "0x4000aea00000000000000000000000009ddfaca8183c41ad55329bdeed9f6a8d53168b1b00000000000000000000000000000000000000000000000029a2241af62c000000000000000000000000000000000000000000000000000000000000000000600000000000000000000000000000000000000000000000000000000000000020f904df29146b1f0652c5bd45633b5c7fb43d0ba6906cb8a3085b9f6a3f4c9b68",
        "nonce": "0x1",
        "chainId": "0xaa36a7"
      },
      "additionalContracts": [],
      "isFixedGasLimit": false
    }
  ],
  "receipts": [
    {
      "status": "0x1",
      "cumulativeGasUsed": "0x6ff0d0",
      "logs": [
        {
          "address": "0x779877a7b0d9e8603169ddbd7836e478b4624789",
          "topics": [
            "0xddf252ad1be2c89b69c2b068fc378daa952ba7f163c4a11628f55a4df523b3ef",
            "0x00000000000000000000000098ff73fb08281742fdb198f434c074d7fc8a6c90",
            "0x0000000000000000000000009ddfaca8183c41ad55329bdeed9f6a8d53168b1b"
          ],
          "data": "0x00000000000000000000000000000000000000000000000029a2241af62c0000",
          "blockHash": "0xf458f0d5a4cf368e050c3a42ffa845faf3f7ed6a618d10e1b6f675d6dcb17f1c",
          "blockNumber": "0x9164e4",
          "blockTimestamp": "0x69046650",
          "transactionHash": "0x630232291f7f79477307e17778135c8b4927102ba02c2e9d44dac56e9a74ef67",
          "transactionIndex": "0x44",
          "logIndex": "0x6c",
          "removed": false
        },
        {
          "address": "0x779877a7b0d9e8603169ddbd7836e478b4624789",
          "topics": [
            "0xe19260aff97b920c7df27010903aeb9c8d2be5d310a2c67824cf3f15396e4c16",
            "0x00000000000000000000000098ff73fb08281742fdb198f434c074d7fc8a6c90",
            "0x0000000000000000000000009ddfaca8183c41ad55329bdeed9f6a8d53168b1b"
          ],
          "data": "0x00000000000000000000000000000000000000000000000029a2241af62c000000000000000000000000000000000000000000000000000000000000000000400000000000000000000000000000000000000000000000000000000000000020f904df29146b1f0652c5bd45633b5c7fb43d0ba6906cb8a3085b9f6a3f4c9b68",
          "blockHash": "0xf458f0d5a4cf368e050c3a42ffa845faf3f7ed6a618d10e1b6f675d6dcb17f1c",
          "blockNumber": "0x9164e4",
          "blockTimestamp": "0x69046650",
          "transactionHash": "0x630232291f7f79477307e17778135c8b4927102ba02c2e9d44dac56e9a74ef67",
          "transactionIndex": "0x44",
          "logIndex": "0x6d",
          "removed": false
        },
        {
          "address": "0x9ddfaca8183c41ad55329bdeed9f6a8d53168b1b",
          "topics": [
            "0x1ced9348ff549fceab2ac57cd3a9de38edaaab274b725ee82c23e8fc8c4eec7a",
            "0xf904df29146b1f0652c5bd45633b5c7fb43d0ba6906cb8a3085b9f6a3f4c9b68"
          ],
          "data": "0x000000000000000000000000000000000000000000000000000000000000000000000000000000000000000000000000000000000000000029a2241af62c0000",
          "blockHash": "0xf458f0d5a4cf368e050c3a42ffa845faf3f7ed6a618d10e1b6f675d6dcb17f1c",
          "blockNumber": "0x9164e4",
          "blockTimestamp": "0x69046650",
          "transactionHash": "0x630232291f7f79477307e17778135c8b4927102ba02c2e9d44dac56e9a74ef67",
          "transactionIndex": "0x44",
          "logIndex": "0x6e",
          "removed": false
        }
      ],
      "logsBloom": "0x00000004000000000000000000000000000000000020000000000000020000000000000000000400800000000000000000000000000000000020000100000000000000000000000000000008000000000000000000000000000020000020000008000000000000000000000000000000000000000000000000000010000040000000000000000000000000010000800000000020000000000000000000000000000000000000000000000000010001000000000000000000000004000000000000000002000000000000000000000000000000000080000100000000000000000010000000000000800000000000000000000000000000000000000000000000",
      "type": "0x2",
      "transactionHash": "0x630232291f7f79477307e17778135c8b4927102ba02c2e9d44dac56e9a74ef67",
      "transactionIndex": "0x44",
      "blockHash": "0xf458f0d5a4cf368e050c3a42ffa845faf3f7ed6a618d10e1b6f675d6dcb17f1c",
      "blockNumber": "0x9164e4",
      "gasUsed": "0x133b1",
      "effectiveGasPrice": "0xf4249",
      "from": "0x98ff73fb08281742fdb198f434c074d7fc8a6c90",
      "to": "0x779877a7b0d9e8603169ddbd7836e478b4624789",
      "contractAddress": null
    }
  ],
  "libraries": [],
  "pending": [],
  "returns": {},
  "timestamp": 1761896017282,
  "chain": 11155111,
  "commit": "3fe8c57"
}